:020000040800F2
:1000000040040020010100082B0C00089B0B000895
:10001000290C000875010008950D0008000000007B
:10002000000000000000000000000000D50C0008E7
:1000300041030008000000004D0C0008D70C000828
:100040001B0100081B0100081B0100081B01000820
:100050001B0100081B0100081B0100081B01000810
:100060001B0100081B0100081B0100081B01000800
:100070001B0100081B0100081B0100081B010008F0
:100080001B0100081B0100081B0100081B010008E0
:100090001B0100081B0100081B0100081B010008D0
:1000A0001B0100081B0100081B0100081B010008C0
:1000B0001B0100081B010008000000001B010008D4
:1000C0001B01000800000000000000001B010008E8
:1000D000000000001B0100081B01000800000000D8
:1000E0001B0100081B0100081B010008DFF80CD0F1
:1000F00000F02EF800480047D1130008400400200B
:100100000648804706480047FEE7FEE7FEE7FEE7B1
:10011000FEE7FEE7FEE7FEE7FEE7FEE74D0D00081F
:10012000ED00000830B50B460146002020220124D6
:1001300009E021FA02F59D4205D303FA02F5491BB5
:1001400004FA02F52844151EA2F10102F1DC30BDCB
:10015000064C074D06E0E06840F0010394E8070014
:1001600098471034AC42F6D3FFF7C4FF9814000848
:10017000B8140008FEE72DE9F04107461C46154675
:100180000E46062000F030F83870072000F02CF8FA
:100190003070082000F028F82870092000F024F8BA
:1001A0002070BDE8F08170B5064614460D46042067
:1001B00000F01AF83070022000F016F828700020C5
:1001C00000F012F8207070BD10B5AF210A2000F0C9
:1001D00079F806210B2000F075F80021BDE81040E9
:1001E0000C2000F06FB8000070B50546002000F04C
:1001F000D3FD1F4C01220221204600F094F9012278
:100200000421204600F08FF901221146204600F01B
:100210008AF900220821204600F085F9284600F0DE
:10022000BBFD00220121204600F07DF9FF2000F0F7
:10023000B3FD00220421204600F075F90021491C7D
:10024000C9B20A29FBD300F003FD054601220421AF
:10025000204600F068F901220821204600F063F9E9
:1002600001221146204600F05EF9284670BD0000CC
:10027000000C014070B50C4601461D46164606208E
:1002800000F020F82146072000F01CF83146082035
:1002900000F018F82946BDE87040092000F012B8B7
:1002A00070B50C4601461546042000F00BF82146B7
:1002B000022000F007F82946BDE87040002000F059
:1002C00001B8000070B505460E46002000F064FD40
:1002D0001A4C01220221204600F025F901220421B6
:1002E000204600F020F901221146204600F01BF9BB
:1002F00000220821204600F016F9284600F04CFDA7
:1003000000220121204600F00EF9002202212046A1
:1003100000F009F9304600F03FFD0122022120469D
:1003200000F001F901221146204600F0FCF82046B9
:10033000BDE870400122082100F0F5B8000C014032
:10034000704731B500F0F4F8009C0546601C00D001
:10035000641C00F0EDF8401BA042FAD338BD000049
:100360002DE9F84FDFF894A100220AF1040B14469E
:100370004FF0010C4FF00F090BF1040E0B680CFA53
:1003800004F52B40AB4271D15D4E4F68A7EB0608D8
:10039000B7422BD00DDC032F34D005DC37B3012F4F
:1003A00019D0022F2FD11BE0112F16D0122F2AD1D6
:1003B00019E0B8F5881F19D006DCB8F5803F15D0D4
:1003C000B8F5801F1FD111E0B8F5001F0ED0B8F5A9
:1003D000041F18D10AE0CA6815E0CA68121D12E0AD
:1003E000CA6808320FE0CA680C320CE08A682AB189
:1003F000012A4FF0080203D0456104E0042202E024
:10040000056100E00022FF2B01D8074601E000F162
:1004100004074FEA840601D9A6F120063D6809FACF
:1004200006F825EA080502FA06F645EA06053D60E3
:100430004D68ED005CD5334DAE6946F00106AE6106
:10044000AD6924F0030605F0010500952E4D7719DE
:10045000BD68A607360F09FA06F825EA0805DFF891
:10046000AC80404503D14FF0000810E040E0DFF8D9
:10047000A080404502D14FF0010808E0DFF89480E9
:10048000404502D14FF0020801E04FF0030808FA9E
:1004900006F848EA0508C7F808804D68ED0305D559
:1004A000DAF800501D43CAF8005004E0DAF80060A2
:1004B0009E43CAF800604D68DBF80060AD035D46FE
:1004C00001D51E4300E09E432E604D68DEF80060BB
:1004D000ED02754601D51E4300E09E432E604D6837
:1004E000AD020D4D2E6801D51E4300E09E432E60E7
:1004F000641C102CFFF442AFBDE8F88F00040140EB
:1005000000001110001002400000014000080140EE
:10051000000C0140001001400C04014080680840BC
:1005200000D0012070470AB1016170470904FBE760
:100530000148006870470000000000200248016880
:10054000491C01607047000000000020074810B5FA
:10055000016841F010010160032000F07FF80020E5
:1005600000F006F800F018F8002010BD002002404E
:1005700010B5044607484FF47A710068B0FBF1F0FB
:1005800000F0F3FA00222146501E00F047F8002048
:1005900010BD0000040000201E4808B5816941F02C
:1005A00001018161806900F001000090032000F0EA
:1005B00055F8002211466FF00B0000F02FF80022D2
:1005C00011466FF00A0000F029F8002211466FF082
:1005D000090000F023F800221146501F00F01EF819
:1005E00000221146101F00F019F800221146901E3B
:1005F00000F014F800221146501E00F00FF80648D3
:10060000416821F0E0614160416841F080614160F2
:1006100008BD00000010024000000140F0B40E4B85
:100620001B680C46C3F30223C3F10705042D00D950
:100630000425191D072901D2002300E0DB1E012635
:1006400006FA05F1491E214099409E40761E16404B
:100650003143F0BC00F0EABA0CED00E0064900F0CE
:10066000070208684FF6FF03184040EA0220034AD9
:1006700010430860704700000CED00E00000FA0530
:100680002DE9F047DFF83C8105460E46D8F800001A
:1006900000F00700B0420CD2D8F8001021F007019A
:1006A0003143C8F80010D8F8000000F00700B0424D
:1006B00063D12878444C800705D56068A96820F08C
:1006C000F000084360602878C00745D068680128BA
:1006D00016D02168022816D0890700294DDA6168F2
:1006E00021F0030101436160FFF722FF69680746BB
:1006F00041F2883001290FD00229814619D027E024
:1007000021688903E9E78901E7E700BFFFF710FFE8
:10071000C11B494501D918E081466068C0F38100DA
:100720000128F3D118E000BFFFF702FFC11B4945C4
:100730000BD86068C0F381000228F5D10CE000BF3F
:10074000FFF7F6FEC11B494502D90320BDE8F0873B
:10075000606810F00C0FF3D1D8F80010404601F09B
:100760000701B1420BD9016821F007013143016053
:10077000006800F00700B04201D00120E6E72878C9
:10078000400705D56068E96820F4E06008436060D0
:100790002878000706D56068296920F4605040EA8F
:1007A000C100606000F01CF86168084AC1F30311E1
:1007B000515CC840064908600020FFF7D9FE0020C0
:1007C000C4E7000000200240001002408814000826
:1007D0000400002001480068704700000400002069
:1007E00010B512A385B00FCB8DE80F0013A0144BEA
:1007F000006804905A68134802F00C0104290FD0D5
:1008000008290DD1C2F38344D2031DF8041009D581
:100810005A6804ABC2F340429A5CB0FBF2F0484322
:1008200005B010BD08484843FAE70000020304057C
:10083000060708090A0B0C0D0E0F1010010200002C
:100840000010024000127A0000093D002DE9F84F27
:1008500004460078B94DC00748D06868C0F38100ED
:10086000012807D06868C0F38100022809D16868B0
:10087000C00306D52868800338D5606800286FD08B
:1008800034E06068B0F5803F0BD010B1B0F5A02F18
:1008900011D0286820F480302860286820F4802057
:1008A00002E0286840F480302860606888B1FFF773
:1008B0003FFE064609E0286840F480202860F0E703
:1008C000FFF736FE801B642875D828688003F7D5AB
:1008D0000CE0FFF72DFE064605E000BFFFF728FEFF
:1008E000801B6428F0D828688003F7D42078944EC1
:1008F00080074FF001094FF000083BD5686810F001
:100900000C0F07D06868C0F38100022809D168681D
:10091000C00306D42868800714D5206901281FD198
:1009200010E02069B0B1C6F80090FFF701FE07465D
:1009300005E000BFFFF7FCFDC01B0228C4D82868F3
:100940008007F7D52868616920F0F80040EAC10007
:1009500028600FE0C6F80080FFF7EAFD074606E0D2
:10096000E9E000BFFFF7E4FDC01B022823D8286898
:100970008007F7D4207800072CD57248A169D9B137
:10098000C0F80090FFF7D4FD074604E0FFF7D0FD64
:10099000C01B02280FD8686A8007F7D56A484FF451
:1009A000FA510068B0FBF1F0009000BF0098411EC2
:1009B0000091FAD20EE080E0C0F80080FFF7B8FDA9
:1009C000074604E0FFF7B4FDC01B022875D8686A2B
:1009D0008007F7D42078400760D5E8690027C00079
:1009E00008D4E86940F08050E861E869012700F028
:1009F0008050009055480168C90513D401688346AA
:100A000041F480710160FFF793FD824606E000BF6C
:100A1000FFF78EFDA0EB0A0064284ED8DBF800003B
:100A2000C005F5D5E06801280AD008B1052813D023
:100A3000286A20F001002862286A20F0040002E001
:100A4000286A40F001002862E06841F2883B98B1D2
:100A5000FFF76EFD82460BE0286A40F00400286232
:100A6000EEE700BFFFF764FDA0EB0A0159455AD835
:100A7000286A8007F6D50CE0FFF75AFD824605E0AC
:100A8000FFF756FDA0EB0A0159454CD8286A8007AC
:100A9000F6D41FB1E86920F08050E861E06988B3BE
:100AA0006968C1F38101022945D00228C6F8608037
:100AB00004D0FFF73DFD044638E034E0FFF738FD91
:100AC000074604E0FFF734FDC01B02282BD8286836
:100AD0008001F7D4206AB0F5803F05D16868A1682D
:100AE00020F4003008436860D4E9080108436968CD
:100AF00021F4741108436860C6F86090FFF718FD90
:100B0000044606E015E000BFFFF712FD001B0228B7
:100B100009D828688001F7D50BE000BFFFF708FD72
:100B2000001B022802D90320BDE8F88F2868800145
:100B3000F4D40020F8E70120F6E70000001002409E
:100B40000000424280044242040000200070004045
:100B50004FF0E0210428086903D020F00400086168
:100B6000704740F00400FAE7704710B5401EB0F13E
:100B7000807F01D3012010BD4FF0E02460610F2180
:100B8000601700F053F80020A061072020610020CA
:100B900010BD10B5FFF7E8FF10BDFEE72DE9F041ED
:100BA0001E4886B0816941F010018161816901F0C0
:100BB00010010491816941F020018161816901F096
:100BC00020010491816941F0040181618069144F21
:100BD00000F004004FF4604404900022214638469F
:100BE000FFF7A1FCDFF83C804FF47066002231462D
:100BF0004046FFF798FC00940124032569463846D7
:100C000003950194FFF7ACFBCDE9006469464046CB
:100C10000395FFF7A5FB06B0BDE8F0810010024088
:100C20000010014000080140FEE770470907090E67
:100C3000002806DA00F00F0000F1E02080F8141D13
:100C4000704700F1E02080F8001470477047000002
:100C500070B51F4D00244FF400612846FFF75EFC7D
:100C600000B180244FF480612846FFF757FC08B19B
:100C700044F040044FF400712846FFF74FFC08B1E0
:100C800044F020044FF480712846FFF747FC08B178
:100C900044F0100480212846FFF740FC08B144F0DE
:100CA000080440212846FFF739FC08B144F0040449
:100CB00020212846FFF732FC08B144F0020410213D
:100CC0002846FFF72BFC08B144F00104204670BD14
:100CD000000C0140704710B5FFF730FCBDE8104034
:100CE000FFF757BF30B58FB001210804CDE90010E0
:100CF0000024029402250491CDE907504FF4E0103E
:100D000009906846FFF7A2FD00B1FEE70F20CDE98C
:100D10000A054FF48060CDE90C4002210AA80E9428
:100D2000FFF7AEFC00B1FEE7FFF754FD4FF47A7118
:100D3000B0FBF1F0FFF719FF0420FFF709FF0022D5
:100D40001146501EFFF76AFC0FB030BD0D48016818
:100D500041F00101016041680B4A114041600168A6
:100D60000A4A11400160016821F480210160416854
:100D700021F4FE0141604FF41F0181600449C0036A
:100D800008607047001002400000FFF8FFFFF6FE09
:100D900008ED00E0FEE7000070B50446274D0006B0
:100DA0004FF4006101D5012200E000222846FFF740
:100DB000BAFB60064FF4806101D5012200E00022F9
:100DC0002846FFF7B0FBA0064FF4007101D50122C1
:100DD00000E000222846FFF7A6FBE0064FF48071F2
:100DE00001D5012200E000222846FFF79CFB2007E6
:100DF00001D5012200E0002280212846FFF793FB65
:100E0000600701D5012200E0002240212846FFF7BB
:100E10008AFBA00701D5012200E0002220212846FC
:100E2000FFF781FBE00701D0012200E00022284605
:100E3000BDE870401021FFF776BB0000000C0140B8
:100E40000FB4084B10B504A902AA039800F01CF8CF
:100E5000044602A9002000F0B8F9204610BC5DF855
:100E600014FB0000CB11000802E008C8121F08C1E3
:100E7000002AFAD170477047002001E001C1121F1B
:100E8000002AFBD1704700002DE9FF4F8BB0884648
:100E90000546002606E025280BD0DDE90D12904717
:100EA0006D1C761C28780028F5D10FB03046BDE8BF
:100EB000F08F0024A146A2460122AE4900E004437F
:100EC00015F8013F203B02FA03F00842F7D12878D9
:100ED0002A2810D06FF02F022878A0F130010929BC
:100EE00015D809EB890102EB410144F0020400EB43
:100EF00001096D1CF0E758F8041B5FEA010903D5EE
:100F000044F40054C9F1000944F002046D1C28782F
:100F10002E2817D115F8010F44F004042A280ED00A
:100F20006FF02F022878A0F1300109290AD80AEBC6
:100F30008A0102EB410100EB010A6D1CF2E758F84F
:100F400004AB6D1C28786C280FD006DC4C2817D019
:100F500068280DD06A2814D104E0742810D07A28AB
:100F60000FD10DE044F400140AE044F4801401E0D1
:100F700044F440146978814202D104F580146D1C58
:100F80006D1C2878692865D006DC00288DD0632880
:100F900027D0642806D15DE06E2808D073282AD0B7
:100FA000752877D0DDE90D129047761CE0E0C4F398
:100FB0000250022809D003280DD0D8F800100428C8
:100FC0000DD00E6008F10408D2E0D8F80010F21736
:100FD000C1E90062F6E7D8F800100E80F2E70E7063
:100FE000F0E718F8041B8DF8001000208DF80100C0
:100FF000EB46012003E058F804BB4FF0FF306107D7
:101000004FF0000701D40AE07F1C57450DDA8742F4
:10101000FADB1BF807100029F6D106E07F1C874297
:10102000FCDB1BF807100029F8D1DDE90D23A9EB43
:1010300007008146214600F0B1F83044C61904E0AB
:10104000DDE90D121BF8010B90477F1EF8D22146F7
:10105000484688E058F8040BC4F302514FF00A0BDD
:10106000032900D100B2042900D140B2002802DADD
:1010700040422D2102E0210505D52B218DF82410B9
:10108000012104E006E0E10710D02021F6E708AFD7
:10109000089113E058F8040BC4F302514FF00A0B07
:1010A000032900D180B2042900D1C0B20021EEE7AB
:1010B0005946FFF737F8303107F8011D0028F7D1FE
:1010C000ADEB070000F1200B600702D524F480345B
:1010D00001E04FF0010ADA4502DDAAEB0B0000E067
:1010E0000020824600EB0B0108980144A9EB0100A7
:1010F0000A90E00306D4DDE90D2321460A9800F0AA
:101100004DF806444FF0000908E009A911F809005C
:10111000DDE90D12904709F10109761C089989450E
:10112000F3DBE0030CD5DDE90D2321460A9800F03E
:1011300035F8064404E0DDE90D1230209047761CB6
:10114000BAF10001AAF1010AF5DC05E0DDE90D12B2
:1011500017F8010B9047761CBBF10001ABF1010BB6
:10116000F4DC0A982146DDE90D2300F005F8064479
:101170006D1C97E6092801002DE9F0410446002581
:101180001E461746880404D405E039462020B0479F
:101190006D1C641EF9D52846BDE8F0812DE9F041AB
:1011A000044600251E469046C80301D5302700E0BE
:1011B0002027880404D505E041463846B0476D1C19
:1011C000641EF9D52846BDE8F0810A68531C0B60FF
:1011D000107070470B4882B0816941F0080181614D
:1011E000806940F6FF7100F0080000900648016039
:1011F000012141600321C1600146044802B0FFF7AC
:10120000AFB800000010024030000020000C014088
:1012100070B51E20FFF795F81C4C00224FF480712A
:101220002046FFF780F9012251022046FFF77BF9A3
:10123000002221152046FFF776F90022E11420460E
:10124000FFF771F96114124C00222046FFF76BF989
:101250000122D50329462046FFF765F900222946D9
:101260002046FFF760F92821002000F033F80C2118
:10127000002000F02FF80621002000F02BF8BDE838
:1012800070400121002000F025B800000008014056
:101290000010014010B5144630B1012806D00228D4
:1012A00006D0032811D105E0803104E0C03102E00E
:1012B000943100E0D431C9B2002000F00BF804E012
:1012C000C1B2012000F006F8641C20780028F7D194
:1012D00010BD00002DE9F05F06460C460220FFF726
:1012E00030F8394D4FF400510EB1012200E00022D8
:1012F0002846FFF718F9DFF8D4B020064FF400674E
:1013000001D5012200E0002239465846FFF70BF9CB
:1013100060064FF4806801D5012200E000224146BA
:101320005846FFF700F9A0064FF4007901D50122D5
:1013300000E0002249465846FFF7F5F8E0064FF472
:10134000807A01D5012200E0002251465846FFF77D
:10135000EAF80122D60331462846FFF7E4F80022D6
:1013600031462846FFF7DFF8200701D5012200E0CB
:10137000002239465846FFF7D6F8600701D501220A
:1013800000E0002241465846FFF7CDF8A00701D5FE
:10139000012200E0002249465846FFF7C4F8E00762
:1013A00001D0012200E0002251465846FFF7BBF869
:1013B000012231462846FFF7B6F831462846BDE8F7
:1013C000F05F0022FFF7AFB80010014000080140B5
:1013D00008B5FFF7BBF8FFF785FCFFF7DFFBFFF76A
:1013E00017FFFFF7F7FEFEF7EFFE1B4C2278617840
:1013F000A078FEF755FFA37962792179E078FEF7AE
:1014000039FF154A511C481CFEF7CDFE124B9B1D9F
:101410005A1E511E481EFEF7AEFE207800906378DB
:10142000A2780EA11248FFF70BFD0021104A0846D2
:10143000FFF730FFA0790090637922790DA10C4865
:10144000FFF7FEFC0A4A00210120FFF723FF64207A
:10145000FEF777FFD5E700000800002054494D450E
:101460003A202532753A2532753A2532750000004A
:101470001000002044415445203A2532753A253267
:10148000753A2532750000000000000000000000E1
:101490000102030406070809B81400080000002030
:1014A00010000000680E0008C8140008100000209A
:1014B00030040000780E00080000000000A24A047A
:0814C0000000100101011400FD
:04000005080000ED02
:00000001FF
