:020000040800F2
:10000000B8060020890F0008910F0008930F000820
:10001000950F0008970F0008990F000800000000D6
:100020000000000000000000000000009B0F00081E
:100030009D0F0008000000009F0F0008BD0600088B
:10004000A30F0008A30F0008A30F0008A30F0008C8
:10005000A30F0008A30F0008A30F0008A30F0008B8
:10006000A30F0008A30F0008A30F0008A30F0008A8
:10007000A30F0008A30F0008A30F0008A30F000898
:10008000A30F0008A30F0008A30F0008A30F000888
:10009000A30F0008A30F0008A30F0008A30F000878
:1000A000A30F0008A30F0008A30F0008A30F000868
:1000B000A30F0008A30F000800000000A30F000812
:1000C000A30F00080000000000000000A30F0008BC
:1000D00000000000A30F0008A30F000800000000AC
:1000E000A30F0008A30F0008A30F000800F002F8F8
:1000F00000F03FF80AA090E8000C82448344AAF183
:100100000107DA4501D100F034F8AFF2090EBAE880
:100110000F0013F0010F18BFFB1A43F0010318473B
:10012000F812000018130000103A24BF78C878C1F4
:10013000FAD8520724BF30C830C144BF04680C60ED
:10014000704700000023002400250026103A28BF35
:1001500078C1FBD8520728BF30C148BF0B60704739
:10016000642901F06980002070471FB51FBD10B5DC
:1001700010BD01F016F91146FFF7F7FF00F008F87F
:1001800001F034F903B4FFF7F2FF03BC01F03CF9CE
:1001900000F09DFA042000F042F900F0E1FA10E0CE
:1001A00000F046FB074908700021084600F0A2F95C
:1001B0000448027804A1084800F0F6FF064800F061
:1001C00050FAEDE70100002054656D70203D2025B8
:1001D00064202A43000000004400002010B54FF4C2
:1001E0000040F7490861022000F09BFA4FF40040FC
:1001F000F349486110BD70B504460D464FF4804088
:10020000EF49486115B14010086103E04FF4005018
:10021000EB4948614FF47060EA4908801020C870CB
:1002200002208870E84800F08FFB4FF40060E64938
:1002300014310860401008604010086040100860E9
:1002400004F0800010B1C814091F086004F04000D9
:1002500020B14FF48060DC491031086004F02000C8
:1002600020B14FF40070D8491031086004F010003C
:1002700020B14FF48070D44910310860FFF7AEFF11
:100280004FF40060D04914310860401008604010FD
:1002900008604010086004F0080010B1C814091F7D
:1002A000086004F0040020B14FF48060C6491031AA
:1002B000086004F0020020B14FF40070C249103110
:1002C000086004F0010020B14FF48070BE49103185
:1002D0000860FFF783FF4FF40060BB4910310860EE
:1002E00040100860401008604010086070BD70B594
:1002F000054600244FF48040B149086115B1401013
:10030000086103E04FF40050AD4948614FF470605C
:10031000AC4908804820C87002208870AA4800F0C4
:1003200013FB4FF40040A6490861022000F0F9F9E0
:10033000A5480830006800F4807008B144F010044B
:10034000A1480830006800F4007008B144F02004AF
:100350009D480830006800F4806008B144F0400413
:1003600099480830006800F4006008B144F0800447
:100370004FF4004092494861022000F0D2F94FF456
:1003800000408F490861022000F0CBF98E48083008
:10039000006800F4807008B144F001048A48083015
:1003A000006800F4007008B144F002048648083088
:1003B000006800F4806008B144F00404824808300A
:1003C000006800F4006008B144F008044FF40040F5
:1003D0007B494861204670BD10B500BF0020FFF783
:1003E00086FF00F080000028F8D1042000F099F981
:1003F0000020FFF77CFF10BD10B50446FFF7ECFFAF
:1004000000212046FFF7F7FE10BD10B50620FFF7CC
:10041000F3FF10BD10B50120FFF7EEFF10BD10B5C2
:10042000044600F054F90121102000F049FD01219B
:10043000042000F045FD4FF4604062490880102020
:10044000C870022088705E4800F07EFA4FF4706039
:100450005C4908801020C870022088705A4800F05B
:1004600073FA4FF47A5000F05CF94FF4007056497B
:100470001031086040100860FFF7B0FE41F288308C
:1004800000F04FF9FFF7AAFE402000F04AF9FFF70D
:10049000A5FE402000F045F94FF400704A491031A4
:1004A00008604010091D0860FFF798FE402000F02A
:1004B00038F92820FFF7A0FF0820FFF79DFFFFF77E
:1004C000A9FFFFF7A2FF414804700146097841F0F7
:1004D0000800FFF791FF10BD10B50446FFF77CFF41
:1004E00001212046FFF787FE10BD10B50220FFF75F
:1004F00083FF10BD70B504460D462DB9E1B241F041
:100500008000FFF779FF06E004F14001C9B241F035
:100510008000FFF771FF70BD10B5FFF75DFF10BDE4
:1005200010B50420FFF768FF10BD10B50720FFF7D6
:1005300063FF10BD10B50520FFF75EFF10BD10B5BD
:100540002248007840F0040020490870097841F002
:100550000800FFF751FF10BD10B51C48007820F0CF
:1005600004001A490870097841F00800FFF744FFB9
:1005700010BD10B51548007840F00200134908700E
:10058000097841F00800FFF737FF10BD10B50F489C
:10059000007820F002000D490870097841F0080049
:1005A000FFF72AFF10BD10B50848007840F00100A1
:1005B00006490870097841F00800FFF71DFF10BDDB
:1005C000001001400A00002000080140080000203F
:1005D00010B53948007820F00100374908700978D3
:1005E00041F00800FFF708FF10BD10B51820FFF715
:1005F00003FF10BD10B51C20FFF7FEFE10BD10B5A7
:100600001020FFF7F9FE10BD10B51420FFF7F4FE1F
:1006100010BD70B50546402D01DA402400E00024ED
:1006200044F08000FFF7E8FE70BD70B50546FFF7A7
:1006300073FF04460A2D03D12046FFF7EAFF0FE0BF
:10064000102C04D10021C020FFF7D5FD05E0502C6F
:1006500003D100218020FFF7CEFD2846FFF73CFFA5
:1006600070BD10B5044603E014F8010BFFF7DDFF81
:1006700020780028F8D110BD70B504460E4604F06D
:100680000704402141EAC400FFF7B6FE002503E05D
:10069000705DFFF721FF6D1C082DF9DB70BD70B593
:1006A00005460E46144631462846FFF723FF2046EE
:1006B000FFF712FF70BD000008000020234800680B
:1006C00020B122480068401E20490860704770B57C
:1006D00000F010FD1E4800681E4AB0FBF2F1481EF3
:1006E000B0F1807F00D31BE0481E4FF0E022506144
:1006F00050170F22002804DB13071C0E164B1C5446
:1007000006E013071D0E154B00F00F04241F1D55A6
:1007100000BF00204FF0E02290610720106100BF71
:1007200070BD0A49086000BF084909680029FBD16B
:10073000704700B5024603E04FF47A70FFF7F1FF0F
:10074000101EA2F10102F7D100BD00001000002030
:100750003000002040420F0000E400E018ED00E00F
:1007600010B50121042000F0ABFB1C204349088098
:100770001020C87002208870414800F0E5F801217F
:10078000042000F09DFB20203C4908802820C870F0
:10079000022088703A4800F0D7F80121082000F0C4
:1007A0008FFBFF20354908802820C8700220887000
:1007B000344800F0C9F810BD10B50024802131483C
:1007C00000F055F908B144F0800440212D4800F0B4
:1007D0004EF908B144F0400420212A4800F047F9BE
:1007E00008B144F020041021264800F040F908B177
:1007F00044F010040821234800F039F908B144F00E
:10080000080404211F4800F032F908B144F0040440
:1008100002211C4800F02BF908B144F00204012128
:10082000184800F024F908B144F00104204610BD36
:1008300010B50421124800F036F91021104800F0DC
:1008400032F908210E4800F02CF910210C4800F074
:1008500028F910210A4800F024F900BF2021084897
:1008600000F005F90028F9D10821054800F01BF92E
:10087000FFF7A2FF0446204610BD0000160000202E
:1008800000080140000C014010B50446CC488442E9
:1008900008D10121042000F02DFB0021042000F0EC
:1008A00029FB46E0C748844208D10121082000F016
:1008B00021FB0021082000F01DFB3AE0C2488442E1
:1008C00008D10121102000F015FB0021102000F0BC
:1008D00011FB2EE0BD48844208D10121202000F008
:1008E00009FB0021202000F005FB22E0B8488442EB
:1008F00008D10121402000F0FDFA0021402000F045
:10090000F9FA16E0B348844208D10121802000F0B2
:10091000F1FA0021802000F0EDFA0AE0AE488442AE
:1009200007D10121801500F0E5FA0021A01500F0A3
:10093000E1FA10BD10B50121084600F0DBFA0021F4
:10094000012000F0D7FA10BD2DE9F0410246002544
:100950000026002000230024002791F803C00CF09B
:100960000F0591F803C00CF0100CBCF1000F03D080
:1009700091F802C04CEA050591F800C0BCF1000FE7
:1009800031D0146800202BE04FF0010C0CFA00F37A
:10099000B1F800C00CEA03069E4220D183004FF05C
:1009A0000F0C0CFA03F7BC4305FA03FC4CEA0404F1
:1009B00091F803C0BCF1280F06D14FF0010C0CFADE
:1009C00000FCC2F814C00AE091F803C0BCF1480F63
:1009D00005D14FF0010C0CFA00FCC2F810C0401C0D
:1009E0000828D1D31460B1F800C0BCF1FF0F34DD8A
:1009F000546800202EE000F1080C4FF0010808FABE
:100A00000CF3B1F800C00CEA03069E4221D183002A
:100A10004FF00F0C0CFA03F7BC4305FA03FC4CEA49
:100A2000040491F803C0BCF1280F05D100F1080CB3
:100A300008FA0CF8C2F8148091F803C0BCF1480F12
:100A400007D100F1080C4FF0010808FA0CF8C2F8C1
:100A50001080401C0828CED35460BDE8F0814FF6CA
:100A6000FF710180022181700421C170704702462C
:100A7000002093680B400BB1012000E0002070477C
:100A80000146886880B2704702460020D3680B4058
:100A90000BB1012000E0002070470146C86880B219
:100AA000704701617047416170470AB1016100E020
:100AB00041617047C16070474FF480320A438261E0
:100AC0008161826182698269704702460020434BDE
:100AD00018684FF68073184040EA021008433F4BF5
:100AE000186070473E49C8617047F0B50A46002358
:100AF00000240021002500F00046B6F1004F02D18D
:100B0000364EF16901E0354E7168C0F3034583B29A
:100B100000F44016B6F5401F08D121F070612F4E49
:100B2000766826F070662D4F7E6012E000F4801625
:100B3000B6F5801F06D1032606FA05F4A14341F05D
:100B4000706106E0460D360103FA06F6B14341F046
:100B5000706122B1460D360103FA06F6314300F00A
:100B60000046B6F1004F02D11C4EF16101E01B4E70
:100B70007160F0BD30B500228B071C0F0F2303FA04
:100B800004F2164B08338C1053F824309343134C63
:100B900008348D1044F8253023468C1053F8243047
:100BA0008C07240F00FA04F423430C4C08348D10F6
:100BB00044F8253030BD0A49DC3108607047000038
:100BC00000080140000C01400010014000140140E9
:100BD00000180140001C01400020014000000140BD
:100BE00000002042DF48006840F00100DD49086055
:100BF00008464068DC490840DA4948600846006811
:100C0000DA490840D74908600846006820F4802087
:100C100008600846406820F4FE0048604FF41F005A
:100C200088607047CF49096821F48031CD4A11604E
:100C30001146096821F480211160B0F5803F03D08E
:100C4000B0F5802F0ED106E0C649096841F4803125
:100C5000C44A116007E0C349096841F4A021C14AB0
:100C6000116000E000BF00BF704710B501460022D0
:100C7000002300204A11012A02D1BA4C236806E061
:100C8000022A02D1B74C236A01E0B64C636A01F034
:100C90001F02012494401C400CB1012000E0002000
:100CA00010BD38B5002000900024002500BF312081
:100CB000FFF7DBFF05460098401C00900098B0F558
:100CC000A06F01D0002DF2D03120FFF7CEFF08B188
:100CD000012400E00024204638BD01460020A14A3E
:100CE000106820F0F80040EAC10010607047A04989
:100CF00008607047024600209A4B586820F47C1028
:100D000042EA01031843974B5860704798490866B8
:100D1000704701460020934A506820F003000843C2
:100D2000506070478F48406800F00C0070470146E3
:100D300000208C4A506820F0F00008435060704753
:100D400001460020874A506820F4E0600843506064
:100D5000704701460020834A506820F4605040EA02
:100D6000C1005060704729B17E4A527A02437D4BE0
:100D70005A7204E07B4A527A82437A4B5A72704725
:100D80007B49D8310860704701460020754A506899
:100D900020F440400843506070470021714A2032DF
:100DA0001170704A82F82010012802D004280AD15C
:100DB00004E001216B4A2032117005E00521694AE7
:100DC0002032117000E000BF00BF70476949086021
:100DD00070476449096A0143624A11627047654974
:100DE00044390860704730B50021002200240023F8
:100DF0005C4D6D6805F00C0121B1042905D008296E
:100E000023D105E05C4D056022E05B4D05601FE0ED
:100E1000544D6D6805F47012524D6D6805F48034C0
:100E2000022505EB92421CB9544D554305600BE079
:100E30004C4D6D6805F400351DB1504D55430560AE
:100E400002E04D4D5543056002E04B4D056000BF8B
:100E500000BF444D6D6805F0F0010909484D6B5C19
:100E60000568DD4045603F4D6D6805F4E061090AA5
:100E7000434D6B5C4568DD4085603A4D6D6805F417
:100E80006051C90A3E4D6B5C4568DD40C560354D1B
:100E90006D6805F44041890B3A4D6B5CC568B5FB44
:100EA000F3F5056130BD29B12E4A526902432D4B3D
:100EB0005A6104E02B4A526982432A4B5A617047B7
:100EC00029B1284A92690243264B9A6104E0254AD7
:100ED00092698243234B9A61704729B1214AD269B2
:100EE0000243204BDA6104E01E4AD26982431D4B63
:100EF000DA61704729B11B4AD2680243194BDA60A4
:100F000004E0184AD2688243164BDA60704729B170
:100F1000144A12690243134B1A6104E0114A126920
:100F20008243104B1A61704712494039086070477C
:100F30000F49C86470470B49C87170470948406A37
:100F400040F0807007494862704701460020054A1A
:100F500092680A400AB1012000E000207047014970
:100F600088727047001002400000FFF8FFFFF6FE95
:100F7000000042428004424200127A0000093D0013
:100F80001A0000202A00002009488047094800472D
:100F9000FEE7FEE7FEE7FEE7FEE7FEE7FEE7FEE729
:100FA000FEE7FEE704480549054A064B7047000086
:100FB000A7100008ED000008B8000020B8060020C7
:100FC000B8020020B80200200CB50020019000906B
:100FD0006C48006840F480306A49086000BF694886
:100FE000006800F4003000900198401C01900098C7
:100FF00018B90198B0F5A06FF1D16248006800F40B
:10100000003010B10120009001E000200090009815
:10101000012843D15C48006840F010005A4908603C
:101020000846006820F0030008600846006840F0A9
:1010300002000860534840685249486008464068CA
:1010400048600846406840F4806048600846406850
:1010500020F47C1048600846406840F4E81048607E
:101060000846006840F08070086000BF454800688E
:1010700000F000700028F9D04248406820F00300DA
:10108000404948600846406840F00200486000BFA0
:101090003C48406800F00C000828F9D10CBD10B5A0
:1010A000FFF792FF10BD10B53648006840F0010010
:1010B000344908600846406834490840314948606E
:1010C00008460068324908402E4908600846006812
:1010D00020F4802008600846406820F4FE00486044
:1010E0004FF41F008860FFF7DAFF4FF000602949D6
:1010F000086010BD10B5002100200022214B5B6864
:1011000003F00C0121B1042906D0082928D107E0F9
:10111000214B224C236027E01F4B204C236023E00F
:10112000184B5B6803F47010164B5B6803F4803255
:10113000022303EB904022B9194B4343174C236021
:101140000DE0104B5B6803F4003323B1144B4343B1
:10115000124C236003E0104B4343104C236003E028
:101160000D4B0E4C236000BF00BF064B5B68C3F302
:1011700003130C4CE15C094B1B68CB40074C23600C
:1011800010BD000000100240002002400000FFF8E7
:10119000FFFFF6FE08ED00E000127A0030000020AC
:1011A00000093D00340000200FB41CB5074B06AA0F
:1011B0007B4469460090059800F0DBF80020694602
:1011C00000F0EAF81CBC5DF814FB0000E50100002B
:1011D0002DE9F0410E460446002020622046E168D9
:1011E000884730B3252805D0D4E901219047206AEB
:1011F000401CF2E7E168204600278847050018D028
:10120000A5F14100192802D820354FF40067324675
:10121000294620462760FEF7A3FF40B1012804D0ED
:10122000F61D26F007060836D8E7361DD6E728460D
:10123000DAE7206ABDE8F0812DE9F0410646002496
:1012400010687529314616A510D0AFF3008000282C
:1012500002DA404213A507E031688A0701D512A5DA
:1012600002E0490704D511A5012401E0AFF3008095
:1012700000210A2206F1240709E0B0FBF2FCB0FBD2
:10128000F2F302FB1C00303078541846491C002849
:10129000F3D123462A463046BDE8F04100F00BB8B2
:1012A000000000002D0000002B00000020000000C6
:1012B0007047704770472DE9F0470D4699469246B2
:1012C000044600F124080168880604D5E06921F08D
:1012D0001001216000E00120A84201DD471B00E071
:1012E0000027A1697A1902EB0900081AA061207889
:1012F000C00602D42046AFF30080002608E0D4E9FF
:1013000001211AF806009047206A401C761C2062D2
:101310004E45F4DB2078C0060AD52046AFF30080A6
:1013200006E0D4E9012130209047206A401C206269
:10133000381EA7F10107F4DC07E0D4E9012118F811
:1013400005009047206A401C2062281EA5F1010577
:10135000F3DC2046AFF300802078000602D502209F
:10136000BDE8F0870120FBE701694A1C02610878AB
:10137000704700B58FB0CDE90131002105910549D5
:101380007944CDE9031011466846FFF721FF0FB0FD
:1013900000BD0000E5FFFFFF0A6802F8010B0A60CC
:1013A0007047754600F02CF8AE4605006946534676
:1013B00020F00700854618B020B5FFF7F3FDBDE823
:1013C00020404FF000064FF000074FF000084FF0AC
:1013D000000B21F00701AC46ACE8C009ACE8C0093D
:1013E000ACE8C009ACE8C0098D46704710B50446AA
:1013F000AFF300802046BDE81040FEF7C3BE0000FA
:10140000004870475800002001491820ABBEFEE795
:101410002600020070470000381400080000002079
:1014200044000000280100087C140008440000204B
:1014300074060000440100080000000000000000E5
:10144000000000000000000000000000000000009C
:10145000000000000000010203040102030406076B
:10146000080902040608000000A24A040000000067
:0C14700000000000010203040607080948
:04000005080000ED02
:00000001FF
